:020000041002E8
:10020000D08C10380104021045040210450402107D
:1002100045040210450402104504021000000000CD
:100220000000000000000000000000004504021073
:1002300045040210000000004504021055CC0800DF
:1002400000000000000000000000000000000000AE
:10025000000000000000000000000000000000009E
:10026000000000000000000000000000000000008E
:10027000000000000000000000000000000000007E
:10028000000000000000000000000000000000006E
:10029000000000000000000000000000000000005E
:1002A000000000000000000000000000000000004E
:1002B000000000000000000000000000000000003E
:1002C000000000000000000000000000000000002E
:1002D000000000000000000000000000000000001E
:1002E000000000000000000000000000000000000E
:1002F00000000000000000000000000000000000FE
:1003000000000000000000000000000000000000ED
:1003100000000000000000000000000000000000DD
:1003200000000000000000000000000000000000CD
:1003300000000000000000000000000000000000BD
:1003400000000000000000000000000000000000AD
:10035000000000000000000000000000000000009D
:10036000000000000000000000000000000000008D
:10037000000000000000000000000000000000007D
:10038000000000000000000000000000000000006D
:10039000000000000000000000000000000000005D
:1003A000000000000000000000000000000000004D
:1003B000000000000000000000000000000000003D
:1003C000000000000000000000000000000000002D
:1003D000000000000000000000000000000000001D
:1003E000000000000000000000000000000000000D
:1003F00000000000000000000000000000000000FD
:10040000DFF844D01149124A124B9A42BEBF51F84C
:10041000040B42F8040BF8E70F49104A104B9A42BC
:10042000BEBF51F8040B42F8040BF8E70D490E4A21
:1004300000209142BCBF41F8040BFAE700F01CF821
:1004400000F016F8FEE70000D08C1038240C0610DF
:100450000000080058120A0040E50A10006002205F
:10046000B073022000000038D08C0038000000007B
:100470005FF800F019C908005FF800F0E97608009D
:100C000010B56E2902D101F006FA10BD702902D18B
:100C100000F0B3FD10BD662902D12CF0C5FC10BD5B
:100C2000652902D12CF0C0FC10BD672902D12CF03F
:100C3000BBFC10BD612902D12CF0BEFC10BD0368C5
:100C40001B0A01D380231943692902D100F0E8FC73
:100C500010BD642902D100F0E3FC10BD752902D15A
:100C600000F0DEFC10BD6F2902D101F0B7FA10BD13
:100C7000782902D100F06EFD10BDE92902D100F003
:100C800005FD10BDE42902D100F000FD10BDF529DD
:100C900002D100F0FBFC10BDEF2902D101F0AAFA4D
:100CA00010BDF82902D100F063FD10BD0368DB0917
:100CB00001D380231943632902D101F0EFF910BD5C
:100CC000732902D101F0F2F910BDE32902D101F03C
:100CD00032FE10BDF32902D101F035FE10BD002017
:100CE00010BD0000684670478546704770466946EB
:100CF0001EF0AEFDFFF7FEFF88B0EFF30880009412
:100D0000019502960397474604974F460597574625
:100D100006975F46079710F0D9FB10F0E1FA000044
:100D2000084B19680868203080F30988022080F396
:100D30001488BFF36F8F3FBCAE4608BC04BC62B6DC
:100D40001847000054890218EFF3108072B67047FC
:100D500080F310887047EFF309800E4B1A68203833
:100D60001060F0C044464D4656465F46F0C008B598
:100D700072B628F085FC62B60CBC116808681030A9
:100D8000F0C8A046A946B246BB4680F30988203881
:100D9000F0C81847548902187046694615F0CAFA17
:100DA000FFF7FEFF30B40C490C684A6823681068EE
:100DB000C0181060241D121D8C4207D28A4208D22E
:100DC0000C604A6030BC4000400870470C00DC3CBE
:100DD000F6E70A00DC3AF3E794DF021870B505463F
:100DE0000C46164602E00FCC0FC5103E102EFAD26C
:100DF000082E02D303CC03C5083E042E07D301CC32
:100E000001C5361F03E021782970641C6D1C761E15
:100E1000F9D270BDF7B50746487882B08007800FD9
:100E20000D46012802D0022805D07DE00621284683
:100E30003C460A3004E03C4628466834062110301F
:100E400000F07EFA0090A61C0020617806E0820087
:100E5000B35C009A934203D0401CC0B28142F6D8E2
:100E6000049A0023D2B2C037019281423FD0800061
:100E700004998019FF2907D9437000218170A97D49
:100E8000EA7D090912014DE0A97DEA7D09091201F7
:100E90008918C278C9B28A4246D0C1704278049992
:100EA000891A0129817810D08908890081700199F7
:100EB0004170827893085B1C92079B00920F1A4343
:100EC0008270D043800707D02EE002235A07D94111
:100ED00089181E22D141E9E7091F61703869622231
:100EE00000210368A01C9847002005B0F0BD0498BD
:100EF000FF2819D8172906D96370386962220021A2
:100F00000368A01C98476078411C617080008019BC
:100F1000009901700199417004218170EA7DA97DD9
:100F2000120109098918C1700120DEE7F7B584B004
:100F30000020019004980E461546002803D0002E8C
:100F400001D0182D02D2FB4807B0F0BD3078000761
:100F5000800F022809D170788007800F012802D104
:100F6000317CFF2902D0022804D06FE101200190DA
:100F7000049C04E03079FF2872D1049C6834304628
:100F800021780A300090049F801DC037029000290C
:100F90002FD001980028386983680CD0214606229A
:100FA0005C31301D984700285AD138690622836881
:100FB000A11C00980BE0062221465C31009898475E
:100FC00000284DD1386906228368A11C02989847F1
:100FD000002845D1B07DF17D000909014018214666
:100FE00060318A78C0B282423AD088706078281A1C
:100FF00085B2237810F096FA0604356BA2CBFEFD7D
:101000002A4631460498FFF705FF002828D10198A9
:1010100000283869436810D00622311D20465C3014
:101020009847386906224368A01C00999847012018
:10103000207004986030007A0EE0062220465C3072
:1010400000999847386906224368A01C029998477E
:101050000120207004980078002801D1012073E756
:1010600006E0280A05D0280A012801D10020A06046
:10107000ECE0E805C00E03285FD8002802D1A16883
:1010800000295AD02A07120F211840310A7501226F
:10109000A16882401143A1600F294ED12046403003
:1010A000017D427D09011143C9B22173802901D913
:1010B00080392173C9B241293FD8817DC27D0801A1
:1010C000104320740020A060E0730220BDE0280AD5
:1010D00033D1E805C00E001F04282ED22A07C0B263
:1010E000120F211840310A7501252A46A168824055
:1010F0001143A1600F2920D120464030017D427D5F
:10110000090111436173817DC07D09010143CEB2A4
:10111000204601210D3000F013F9B0420DD1607B63
:1011200020280AD8616E890701D5010705D1217BE6
:1011300088427ED30020A060257087E0E80901285E
:1011400008D0280A012804D1E07B00287ED00020A6
:10115000E0737BE0E27B6B062046511C5B0E543053
:10116000E1731354E17B022970D15521227B095D83
:101170009208914204D900210122E2730B5465E0E8
:101180000120A26888400242E1D104205DE0280AE3
:1011900001280DD0E809012858D16B0603215B0E08
:1011A00022460020217054320121E17383544DE026
:1011B000204640300090417D207B8208914201D240
:1011C000062602E08607B60FB61CE17B2246481CC5
:1011D0005432E0738D54E07BB04237D1711E501C05
:1011E00000F0AEF841060098490E007D814237D1EB
:1011F00001E03AE030E000983969407D4B688000BA
:1012000000191230B21E214656319847A07BB61EF7
:101210008019C0B2A0730099A2684B7D012199404A
:101220000A43A260217B884218D12046617B12309C
:1012300000E017E00B5C002263740A540521217062
:10124000617B421805E0E0730320207000207BE6FC
:10125000401C9042FCD1E173022075E6884201D225
:101260000020F0E70020A060EDE733486CE633484B
:10127000704770B504000D4615D0002D13D02B68B3
:10128000002B10D0686800280DD0A86800280AD06C
:10129000D42200212046984700206821085520705C
:1012A000C034256170BD2348173070BD3EE600286C
:1012B00013D0002911D002466832536E5B0702D466
:1012C0001378052B0CD00246406E400702D41078EC
:1012D000052805D018481738704717480A3870474E
:1012E000104612300860537B401C18184860D07BB1
:1012F0000872107B537BC01A401E4872527C00203B
:101300008A72C872704770B5044600256030264660
:101310004572C036306962220368204629466A3029
:10132000984765703069622200210368A01C9847C5
:10133000284670BDF8FDFFFFA8FCFFFF2421051023
:1013400010B542180021054C03E00378401C4B40C7
:10135000E15C9042F9D1084610BD00002420051040
:1013600010B500F0ADFD001D10BD00BFE5C10200CD
:1013700010B5202A04DB0146203A9140002010BD20
:10138000914020239C1A0346E3401943904010BD2E
:101390004343514330B55C18010C130C0D4692B217
:1013A0005D4380B251432C19054655430A0C09048C
:1013B0004D1962415843010C00044019514130BDA0
:1013C000FEB5054610460C46184373D0AE468C4613
:1013D0000020AD1A01469C4167D3664600270124D0
:1013E0003D46B61A9D4102D313463A46212465462E
:1013F00076462F04360C3E432D0CB61A9D4104D37D
:10140000150C1B042B4312041034654676462F0638
:10141000360A3E432D0AB61A9D4104D3150E1B020F
:101420002B4312020834654676462F0736093E43A1
:101430002D09B61A9D4104D3150F1B012B43120130
:10144000241D65467646AF07B6083E43AD08B61A7A
:101450009D4104D3950F9B002B439200A41C65462D
:101460007646EF0776083E436D08B61A9D411AD3BB
:1014700092185B41641C16E00018764665464941A7
:10148000B71A9D410191009009D36046B11A984165
:101490008E468446009801990025401C6941DD076D
:1014A00052082A435B08641EE6D57246634603B0C1
:1014B000F0BDFFE700200146C046C0462A4623464D
:1014C000F5E700007CB51D4616460C00009001D0E3
:1014D0000019401E084B7B442A466946019030465D
:1014E00000F0B1FD002C054603D06946002000F055
:1014F000BDFD28467CBD00009D0B00000FB40549D2
:1015000010B503AA029800F0D5FD10BC08BC04B0C9
:1015100018470000D08602180FB41CB5084B06AA65
:101520007B4469460090059800F08DFD044600203C
:10153000694600F09BFD20461CBC08BC04B018475F
:10154000490B00000FB47CB50C0009AA009001D033
:101550000019401E094B7B4469460190089800F031
:1015600072FD002C054603D06946002000F07EFD88
:1015700028467CBC08BC04B0184700001D0B0000C6
:1015800070B5044685690068C10601D5302600E0C3
:101590002026C00707D070BD62683046A16890471A
:1015A000206A401C20626D1EF6D570BD70B50446E1
:1015B00085690078C00707D170BD6268A1682020E6
:1015C0009047206A401C20626D1EF6D570BD70B534
:1015D0000C460546012A05D02878800600D5EA6920
:1015E000002302E0012305E05B1C934202D2E05C91
:1015F0000028F9D1A869E618C01AA861286AC0189D
:1016000028622846FFF7BCFF04E06A682078A968D2
:10161000641C9047B442F8D32846FFF7C7FF70BD5B
:10162000F7B5002575291068009914A611D000F0AF
:1016300088FC002802DA404211A608E000990968F7
:101640008A0701D50FA602E0490704D50EA6012599
:1016500001E000F07FFC009F0024243704E000F04C
:10166000D3FD30313955641C0028F8D12B46324661
:101670002146009800F077FCFEBD0000000000004D
:101680002D0000002B00000020000000F7B5D21D47
:101690000025D20815A6D200F52905CA11D0002AC6
:1016A00005DA00214042914111A60A4608E000995E
:1016B00009688B0701D50FA602E0490701D50EA6E0
:1016C00001251146009F0024243704E000F0FCFBB4
:1016D00030323A55641C02460A43F7D12B46324653
:1016E0002146009800F03FFCFEBD00000000000015
:1016F0002D0000002B00000020000000F8B50F4670
:101700000188090502D5224C7C4402E0204C7C442F
:101710000E3405460021243508E016071209360F5D
:10172000A65D6E541E0732431B09491C16461E4314
:10173000F3D1224604780023240705D5702F06D064
:10174000002901D00223113200F00DFCF8BD012365
:101750001032F9E770B504460D462146106800F0D6
:10176000F9FB0023024629462046FFF7C7FF70BD5C
:10177000D21DD308DB000CCBC0E730B403682024B3
:101780001268234303600823C36130BC0023B5E71C
:101790005E0A0300F3B50446002081B020622046B3
:1017A000E1688847002872D0252802D06268A168C5
:1017B000ABE0594F00267F442046E1688847202847
:1017C000054608DB312D06D278192038007800282C
:1017D00001D00643F0E7B00701D50420864300207E
:1017E000E0610746A0612A2D0AD0284611F084FB4B
:1017F000002827D0B8000019303D0090856119E01D
:101800000298BA00121902C8916102902046E1685C
:101810008847012F054617D1E06900281FDA2020EC
:1018200086431CE000980A218069484300994019CA
:10183000303888612046E1688847054611F05CFB36
:101840000028EFD1012F0AD02E2D08D12046E168C3
:1018500088470546202006437F1C022FC3DBA06972
:10186000002803DA4042A06101200643F00701D0BE
:10187000102086436C2D0BD0682D09D04C2D3CD008
:101880006A2D38D0742D38D07A2D36D016E040E04D
:10189000E1682F4620468847B842054609D16C2F9B
:1018A00029D001208002E16806432046884705468A
:1018B00004E06C2F1DD0FF2001300643002D28D0FE
:1018C00028464138192803D80120C0020643203594
:1018D000204626602946029A1646FFF791F900280D
:1018E00010D001280BD0F61DF008C000083002907F
:1018F00055E74020E1E78020D5E70020D3E7361DFB
:1019000002964CE762682846A1689047206A401C0E
:1019100044E7206AFEBD0000D80903000B4A30B539
:1019200011460B4C60310B46DC3B0CC1372106E005
:10193000020C8D0012185A51064A504300190A46EB
:10194000491E002AF4DC30BD0120E7E734DF02182D
:10195000E119D666CD0D0100034610B50B439B0778
:101960000FD1042A0DD308C810C9121FA342F8D002
:1019700018BA21BA884201D9012010BD0020C04305
:1019800010BD002A03D0D30703D0521C07E000206B
:1019900010BD03780C78401C491C1B1B07D1037831
:1019A0000C78401C491C1B1B01D1921EF1D118461A
:1019B00010BD0000034670B502460B439B070FD1D4
:1019C0000E4CE60100E008C208C91D1B9D433542CC
:1019D000F9D0D9B21170521C00290DD01B0AF8E7BA
:1019E0000B78491C1370521C002B05D00B78491C36
:1019F0001370521C002BF3D170BD000001010101D6
:101A000030B5441C03E00178401C00290DD081074B
:101A1000F9D10B4BDD0104C8D11A91432940FAD00A
:101A2000001B0A0603D0C01E30BD001B30BD0A04D7
:101A300001D0801E30BD0902FCD0401E30BD000028
:101A40000101010110B5044600F002F8204610BD66
:101A5000F8B5042A2CD3830712D00B78491C0370E5
:101A6000401C521E83070BD00B78491C0370401C8E
:101A7000521E830704D00B78491C0370401C521E71
:101A80008B079B0F05D0C91ADF002023DE1B08C976
:101A90000AE0FFF7A3F9F8BD1D4608C9FD401C4642
:101AA000B4402C4310C0121F042AF5D2F308C91AFF
:101AB000521EF0D40B78491C0370401C521EEAD40D
:101AC0000B78491C0370401C012AE4D4097801708A
:101AD000F8BD431A70B593421BD28918801804E0F0
:101AE000491E401E0B78521E03709307F8D106E082
:101AF0001039103878C9103978C01038103A102AC7
:101B0000F6D203E0091F001F0B680360121FF9D50E
:101B100070BDFFF763F970BDF8B50646144608437B
:101B2000800707D0751AA54219D20819102D13D2B3
:101B3000311907E03046FFF7CCFFF8BD401E491EC3
:101B400002780A70641EF9D2F8BD471B2A4639464E
:101B5000FFF77EFF641B3846A542F6D3011B2246E1
:101B60003046FFF775FFF8BD134610B50446CAB2FC
:101B700019461002821810048218204600F018F846
:101B8000204610BDD2B210B513029A1813049A1849
:101B900000F00EF810BD01E004C0091F0429FBD2BB
:101BA0008B0701D50280801CC90700D002707047E6
:101BB00000290BD0C30702D00270401C491E022925
:101BC00004D3830702D50280801C891EE3E700222C
:101BD000EEE70022DFE70000F8B507460B4639467E
:101BE0001943890713D1164CE601042A0FD302CBFF
:101BF0000D1B8D43354202D102C0121FF5E7CBB257
:101C00000370401C521E002B13D0090AF7E7002A6C
:101C100014D01978521E5B1C0170401C002908D09A
:101C2000002A0BD01978521E5B1C0170401C002941
:101C3000EDD1002A02D01146FFF7C9FF3846F8BDA2
:101C400001010101024670B50A4392072AD11E4DD7
:101C5000EE0104C808C9541B9443344017D0D0B2D5
:101C6000D9B2401A2106014310D190B299B2401A5C
:101C7000210401430AD110021902000A090A401A7C
:101C80002102014302D1100E190E401A70BD9A4272
:101C9000DFD010BA19BA884201D9012070BD0020E6
:101CA000C04370BD02780B78401C491C002A09D043
:101CB0009A4207D102780B78401C491C002A01D0B7
:101CC0009A42EFD0D01A70BD010101010378C278A9
:101CD0001946437812061B0219438378C0781B0407
:101CE000194311430902090A000608437047020A12
:101CF00008704A70020C8A70020ECA70704710B5E4
:101D000042780378110E120213438278140C1204E5
:101D10001343C2782143140A120613430279214364
:101D200011434279120211438279C079120411439E
:101D300000060143184610BDF0B50D06040A2C43F9
:101D4000107054700D04040C2C4394700E02040E99
:101D500034430F0AD4700D0C117157710E0E95712A
:101D6000D671F0BD002203098B422CD3030A8B42AB
:101D700011D300239C464EE003460B433CD4002283
:101D800043088B4231D303098B421CD3030A8B4295
:101D900001D394463FE0C3098B4201D3CB01C01A63
:101DA000524183098B4201D38B01C01A524143092E
:101DB0008B4201D34B01C01A524103098B4201D31C
:101DC0000B01C01A5241C3088B4201D3CB00C01A89
:101DD000524183088B4201D38B00C01A5241430801
:101DE0008B4201D34B00C01A5241411A00D2014626
:101DF0005241104670475DE0CA0F00D049420310BF
:101E000000D34042534000229C4603098B422DD30D
:101E1000030A8B4212D3FC22890112BA030A8B42B5
:101E20000CD3890192118B4208D3890192118B4204
:101E300004D389013AD0921100E08909C3098B4289
:101E400001D3CB01C01A524183098B4201D38B01CC
:101E5000C01A524143098B4201D34B01C01A52416F
:101E600003098B4201D30B01C01A5241C3088B42B4
:101E700001D3CB00C01A524183088B4201D38B009F
:101E8000C01A5241D9D243088B4201D34B00C01A29
:101E90005241411A00D20146634652415B1010463E
:101EA00001D34042002B00D54942704763465B1086
:101EB00000D3404201B50020C046C04602BD00002C
:101EC000004870479CDF02180B4670B50246890730
:101ED0008008084319469D08141AA94125090807D6
:101EE000054308092C194841250A01060D43010A3A
:101EF0002C194141200C0D0428430D0C00194D41B3
:101F0000002140194D41C00869070843E908840FC2
:101F10008D002543840024184D4124196D41121B66
:101F2000AB4107E00925ED432C1152196341002410
:101F3000401C61411C460A250026551BB441F1D2C4
:101F400070BD09684A0501D540B27047C905FCD586
:101F500000B2704709684A0501D5C0B27047C9058B
:101F6000FCD580B27047FFB504460D4681B02430E1
:101F700000902168880604D51022E0699143216011
:101F800000E00120A84201DD471B00E00027049883
:101F9000A1697A191018081AA0612078C00602D425
:101FA0002046FFF7EDFA002608E003986268A16872
:101FB000805D9047206A401C761C2062049886420F
:101FC000F3DB2078C0060AD52046FFF7D9FA06E0F1
:101FD0006268A16830209047206A401C2062384621
:101FE0007F1E0028F4DC07E000986268A168405D6D
:101FF0009047206A401C206228466D1E0028F3DCB2
:102000002046FFF7D3FA2078000602D5022005B05B
:10201000F0BD0120FBE711680268006A530501D595
:10202000087009E0D30501D5088005E0130602D544
:10203000C21705C100E008600120704701694A1C11
:1020400002610878704700B58FB0029100210591B8
:102050000549019379440391114604906846FFF7BE
:1020600099FB0FB000BD0000E5FFFFFF0A6810708C
:10207000521C0A6070470CC908399A4202D2531C9C
:102080000B601070704710B54369002B02D0C0463A
:10209000C04601E0FFF79BFA012010BD127801460F
:1020A00024310A7000224A700122ECE711680022F4
:1020B000D243E8E7084B70B50D467B44FFF7C3FFFA
:1020C0000446284614F091FC002802D00020C043AA
:1020D00070BD204670BD0000694A0100F7B5044696
:1020E000154686B02B487844002703C83E4600902A
:1020F000019111E007986A467100415A02A800F068
:1021000026FC411C07D02178890603D5E2693918DD
:1021100091420ED83F18761C2078800602D5E069DF
:10212000B84206DDAE42E5DB07987100405A002850
:10213000E0D1A069C01BA0612046FFF721FA154835
:1021400078445A3803C800900020019116E04100FD
:102150006A460798415A02A800F0F9FB0590401C16
:102160000AD0002505E0626802A8A168405D90479A
:102170006D1C05988542F6D30498401CB04204902B
:10218000E5DB206AC01920622046FFF70FFA09B08C
:10219000F0BD0000BA00030070B5044600212434ED
:1021A00008E05507D2086D0F303565545D072A43A6
:1021B000DB08491C15461D43F3D10468002310A217
:1021C000250708D5A40601D4002904D0C469012339
:1021D0000CA2641EC461FFF7C6FE70BD10B50446B4
:1021E00021461068FFF7B6FE002302462046FFF79F
:1021F000D3FF10BDD21DD108C9000CC9CCE7000027
:10220000000000003000000001468008081A0209A2
:102210001018020A1018020C1018C00882001218B8
:102220005200891A01E0401C0A390A29FBD2704782
:102230007047FFB50C461E468FB003CA089009913F
:102240004F007D0D00D16D1E002108460020C046C4
:102250000321099A89050840002A03DA82008018C0
:1022600040080840800D01280A9002DD0020C0438C
:102270000A90089807430DD0F048F14928184843C0
:102280000714189800281DD07542291E1DDD0A98D4
:1022900042421BE01898012802D00020302104E0BF
:1022A0000020F24305E02154401CB042FBDB3046E5
:1022B0000022189B002121540F998B600A6048600E
:1022C00013B0F0BDBD1B6D1CDFE70A9A002900DAD0
:1022D00069420BA800F0A0FB0BAB07CB03AB07C315
:1022E0000899099800F004FC6B4607C30146D548DD
:1022F0000918002D00910BDDD24903980A9A494232
:102300004018002303A90390684600F061FE08E02E
:1023100003990A9A0023081803A90390684600F05D
:1023200001FE6B4607C30004000C03D00020C0432D
:10233000410800E01046189A002A03D000220092BB
:1023400015461EE0751E05D4FFF7BEFD30326255FE
:102350006D1EF9D501220843079602D000227F1C8A
:1023600004E02078302801D100227F1E002A069741
:1023700087D01EE0112D07DAFFF7A6FD3032625537
:102380006D1C02460A43F5D1084303D0009800288B
:1023900019D00EE00021681E05E0235C625C6354E6
:1023A0002254401E491C8142F7DBA81B401E0795A2
:1023B0000690079A18990020A0540F98079B069A38
:1023C00081600CC07CE711260020189059E7D21DCF
:1023D000F0B50D460446D10893B0C90003C90C906E
:1023E0000D910FF0ADF802460D98C00F01D02D20D1
:1023F00007E02068810701D52B2002E04007C00FCD
:102400004001032A0F9001D0072A05DB0346294625
:10241000204600F0BDFA0EE12078800601D5E7697C
:1024200000E006272846652D04D0662814D0672DC5
:1024300069D12DE00020112F009001DB112300E075
:102440007B1C0CAA03A910A8FFF7F3FE1199002624
:1024500010987D1C0E9142E001203B460CAAC0075B
:102460000B900120009003A910A8FFF7E2FE119D38
:1024700012981099002600280E9501D1781C0D188D
:10248000781B02D446427D1C761EE81B00903AE081
:10249000012F00DA01270020112F009001DD112308
:1024A00000E03B460CAA03A910A8FFF7C2FE119951
:1024B0003D46109800260E91217809070BD40E99FD
:1024C000A94200DA0D4603A9012D04DD4A19203A7C
:1024D000D27F302A06D0B84201DA011D04DA012188
:1024E00000910FE06D1EEFE7002802DC86192D1A1F
:1024F00003E0411CA94200DD0D46801B401C0090FA
:102500000120C0070B902078000705D40098A8424E
:1025100002DB0020C043009069460020C8720B987F
:10252000012102AF0337C907884225D0022010904D
:102530002B2011900B9800280BDA40420B902D2095
:10254000119006E00B98FFF75FFE30317F1E0B9075
:1025500039701099481E00291090F3DC0B98002860
:10256000F0D111987F1E38702088000501D54520D4
:1025700000E065207F1E387001A8C01BC01D0B90B5
:102580000F98002800D0012041190098C0170918A1
:102590000B980818A169081A401EA0612078C0068F
:1025A00002D42046FEF7ECFF0F98002805D06268A1
:1025B000A1689047206A401C20622078C00625D57B
:1025C0002046FEF7DDFF21E0002E07DB0E98B0422B
:1025D00004DD03A86268805DA16802E06268A1680A
:1025E00030209047206A761C401C20620098401ED4
:1025F000002800900AD1FFF763FCC0686268016898
:10260000405CA1689047206A401C206228466D1EED
:102610000028D9DC07E062683878A1687F1C904701
:10262000206A401C20620B99481E00290B90F2DCA6
:102630002046FEF7BBFF032042E6000001FCFFFF3F
:10264000104D0000E1DFFFFFD21DF0B504460D463E
:10265000D0088DB0C00046680768314638460EF095
:102660006FFF0246F00F01D02D2307E0206881079D
:1026700001D52B2302E04007C00F43016846002B21
:10268000037001D0012000E00020032A0A9001D04D
:10269000072A04DB2946204600F07AF92DE120784C
:1026A000800601D40D2500E0E5697000400D0D2D78
:1026B00001904BDA300D00210B9008460020C046F7
:1026C000032189050840002E05DA82008018C20F18
:1026D0001018401008408015012801DD0020C0437B
:1026E000A9000023182906D39C460A460123183A5C
:1026F0001B07D34003E001221205CA4094460C3167
:10270000202902D33A46203900E032468A40002888
:1027100002DD002A06D119E0002817D10121C907DE
:102720008A4213D3194663467F185E41002806D1BA
:102730000120C007824202D1084687439E430B987E
:10274000310D814202D00198401C01902088000583
:1027500002D57149794402E06F49794419396B46D1
:102760000A9830221A540A980A7C401C1A54401CB9
:102770000A900198002801DC302000E03120187216
:10278000019A0120002A02D0644BD21804E07200A2
:102790003A4302D0614A521C0192002D02DC227899
:1027A000120703D56A462E20507202200022864668
:1027B00094460CE032033601120F6D1E8B5C02AAA8
:1027C00013546246521C401C9446052A01DA002D1F
:1027D000F0DC002202AE08E03B0F3F01CB5C521C54
:1027E0006D1E3354401C082A01DA002DF4DC2368E6
:1027F0009A0601D511E0401E704504DD3218203ADA
:10280000D27F302AF7D0002807DD3218203AD27F55
:102810002E2A02D11A0700D4401E002D03DD3E22CD
:102820003254401C6D1E497C31540199401C0029D2
:1028300006DA2D21471C315401984042019003E0F3
:102840002B21471C315401987D21C900884206DBA9
:10285000FFF792FA3030F0557F1C019101E06428B7
:1028600008DB01986421FFF787FA3030F0557F1CB0
:10287000019101E00A2806DB01980A21FFF77CFAA2
:102880003030F0557F1C01980A21FFF775FA30317E
:10289000F1550A98A1697F1C7A191018081AA061CD
:1028A0002078C00602D42046FEF76AFE216A6E46F2
:1028B0000A980818206204E062683078A168761CE3
:1028C00090470A98401E0A90401CF5D12078C00617
:1028D00002D52046FEF754FE02AE09E03078761CA1
:1028E0003E280DD06268A1689047206A401C206293
:1028F0007F1EF3D22046FEF759FE0DB00320F0BD37
:10290000206A4019206203E06268A1683020904785
:102910006D1EEDD3F8E7000067FA020001FCFFFF2F
:1029200010B54369002B02D0C046C04601E0FFF756
:10293000D5FB012010BD128801462431828400227B
:10294000C2840122ECE711680022D243E8E770B5A7
:1029500016460C460546FEF703FD0368FF200230CD
:10296000C05C012807D0FF2C0ED8185D00280BD0C2
:1029700001202C7070BDFF333246214608331868A1
:10298000C3182846984770BD0020C04370BD0000A2
:10299000F8B51F46044601230068DB020326014602
:1029A0001840072A05DB002801D017A506E017A567
:1029B00004E0002801D016A500E016A510208143F0
:1029C0002160A069C01E002FA06101D0401EA0613F
:1029D0002046FEF7D5FD002F09D038466268A16871
:1029E0009047206A401C2062C01C206206E0206ADA
:1029F000FAE762682878A1686D1C9047761EF8D2C5
:102A00002046FEF7D3FDF8BD4E414E006E616E00CC
:102A1000494E4600696E6600F7B516468AB03348DF
:102A200078446C4603467C33C06F5A689B680DC47B
:102A30002E487844763003AC0DC80DC43720C00151
:102A4000081837211B30FFF797F905460C46803DE3
:102A50001B3C02D56442012000E0002000270990C1
:102A600010E0E0070CD00C2020497843794432462E
:102A70004C3941186846012300F054FA6B4607C3ED
:102A800064107F1C002CECD1184F7F442E3F16E0C1
:102A9000E80712D02001C0190EC8069108930792CA
:102AA0000068F04201D1981908903246012306A926
:102AB00003A800F037FA03AB07C36D10641C002DA8
:102AC000E6D10998002806D032466946012303A8BA
:102AD00000F07EFA05E001233246694603A800F0C3
:102AE00021FA0A9B07C30DB0F0BD0000B0F7020049
:102AF000034640000A4610B5400D0BD00121C9071E
:102B00000F24A40200191C0364082143540D21431F
:102B1000D20207E000210120F2E7D40F490021434F
:102B20005200401E0029F8DADB0FDB07184310BD06
:102B3000FFB50D46144685B0486851680EF0DAFCC2
:102B400000910190A868A1680EF0D4FC0291039056
:102B5000A86861680EF0CEFC029A121882420292B6
:102B600001D2012000E00020019A0B18D2180028A1
:102B7000019202D08A4202D903E08A4201D20120A6
:102B800000E000200099081800906868A1680EF025
:102B9000B1FC029A12188242029201D2012000E096
:102BA0000020019A0B18D2180028019202D08A4204
:102BB00002D903E08A4201D2012000E000200099FE
:102BC000081800902868216840004900400849081A
:102BD0004018FA49471814E001994000C90F08430A
:102BE0000090019802994000C90F08430190029893
:102BF00003994000C90F08430290039840007F1ECC
:102C0000039000980028E7DA0898002801D0EC4EDD
:102C100000E00026B74201DA012000E00020002891
:102C200004902AD0F71BF806C00E15D0029B202175
:102C3000091A039A8B401A430392029A019BC240DD
:102C40008B401A430292019A009BC2408B4000992C
:102C50001A430192C14000917B110DD06F460320B1
:102C6000C11A03D500218200B95003E08A00810017
:102C7000BA587A50401EF3D5374603980299002877
:102C800000D00120014308980291002808460CD08A
:102C9000002800D001200199019A4905084301212B
:102CA000D20AC902D202019200E001210E9B012248
:102CB000D207012B02D0002B03D013E0002807D14C
:102CC00020E0904204D890420CD1019B0B4209D0E5
:102CD000019B5918019105D10099491C009101D11E
:102CE0007F1C009200280DD0102108460020C0460D
:102CF0000498002806D00F98002803D00821084621
:102D00000020C04628682168019B009A4840C10FF6
:102D10000598C90739430EC009B0F0BDFFB587B0AB
:102D2000099A089808995368926840688968964695
:102D30000022039317469446089A12685300099A92
:102D40005B081268520052089A1A9E4BD4180A9ACD
:102D5000002A01D0352200E0402206920022012301
:102D600015460492DB07059324E0002D05D1754636
:102D70000346039E4D1BB34109D375466646039B2C
:102D8000491B049D9841059B7519AC465F416346FC
:102D90003B4308D0059B049EDD0776082E435B0865
:102DA0000496059301E0521E641EC50FED074918F5
:102DB0004041521C069B9A42D7DB002D04D1754638
:102DC000039A6B1A824101D203200CE0039A0B464E
:102DD0006B404240134303D0014303D0012002E083
:102DE000022000E00020614601910021009702913D
:102DF0000A99002905D0614640020143704B0191B8
:102E000002E08007002302909C4201DA012000E0EA
:102E1000002007003AD01A1BD006C00E15D0029D24
:102E20002021019C091AC5408C402543029C8C40FE
:102E300000D001242543019C0295009DC4408D4093
:102E400000992C430194C140009154111DD06D464E
:102E50000221002202290CD10320001B07E00028D8
:102E600004DB8600AE59002E00D00122401C03284E
:102E7000F5DB081B02D588002A5004E080002858A2
:102E800010438A00A850491EE3D51C460A98002822
:102E900002980CD0002800D001200199019A490520
:102EA00008430121D20AC902D202019200E00121A5
:102EB000109B0122D207012B02D0002B03D013E07C
:102EC000002807D11FE0904204D890420CD1019B0A
:102ED0000B4209D0019B5918019105D10099491C59
:102EE000009101D1641C009200280CD010210846EA
:102EF0000020C046002F06D01198002803D00821DA
:102F000008460020C04608980999019A009B00686D
:102F100009684840C10F0798C907214382600AC069
:102F20000BB0F0BD00B585B0019300920A46014692
:102F3000002302A8FFF7FCFD02A807C805B000BDEA
:102F4000FFB50A461F4685B00799019301230091FA
:102F5000014602A8FFF7ECFD02990398049ECA0FF0
:102F60004900D20700920F22490892028C1A0021D0
:102F7000002800DB0C46450013486D08844214D33A
:102F8000079A002A04DA441E0026104DF64302E098
:102F900004460D460E46102108460020C046002F6C
:102FA00003D0042108460020C0462005E90A084352
:102FB000009908436905F20A1143ADE602C0FFFF1C
:102FC000013C0000FF3F0000FF070000FFFFFF7F04
:102FD00000B585B0019300920A460146002302A87D
:102FE000FFF79CFE02A807C8A8E7FFB50A461F46E0
:102FF00085B00799019301230091014602A8FFF7CC
:103000008DFE02990398049ECA0F4900D2070092D0
:103010000F22490892028C1A0021002800DB0C467E
:10302000450011486D08844214D3079A002A04DA37
:10303000441E00260D4DF64302E004460D460E46A2
:10304000102108460020C046002F03D00421084666
:103050000020C0462005E90A084300990843690595
:10306000F20A114358E60000FF070000FFFFFF7F50
:10307000FFB5924889B0416100250E4645620021A6
:103080008562C943C5621746C1601C461A46394667
:10309000304600F002F9002802D0E00F0019441079
:1030A000012E02D08648864207D1052C05D00D2C72
:1030B00003D01520C0430DB0F0BD00230595069543
:1030C00007950494009501950397029519461846B3
:1030D000099A03F003FBEEE77CB50A267D24E400A1
:1030E000764D14E0401C0FD0E868002801D075A18F
:1030F00000E076A100910190764B77A279A10220A1
:103100001BF0E6FEE8687CBD304621F03FF8E86839
:10311000641EE7D26F4B009009336FA275A10220A5
:103120001BF0D6FEEEE710B5032103F04AFB10BDFD
:1031300070B50C460A4605460146012000F0ADF880
:10314000002802D0E00F001944102146284600F064
:103150003CFC002802D1594A0121916170BDFFB5A4
:1031600095B000201D461646139013F0D3FD129023
:1031700040200190514800270021FF4381610761F1
:103180004561C1619C2020F039FF04001BD0E06C38
:1031900002210843E064334600955CA10220169AA0
:1031A0001BF096FE002D3FD0012D3DD044488542B6
:1031B0003AD0002002216A020FD55E4A01209542D2
:1031C00005D1082207E00B20C04319B0F0BD594AD1
:1031D000921C08E01022082309E0AA0211D5564AE1
:1031E0009542EED0921C9542F4D11022134602ADC6
:1031F000656000910028019902A80CD003F078FBCB
:103200000BE02A464DA102201BF062FE204620F072
:10321000EAFE3846D9E706F0BBF90246E0604F48BF
:103220006168006E28F04AFB4D494020015301942B
:103230000096169B159A1399129803F091FA054679
:10324000204620F0D0FE2846BFE77CB50A267D2424
:10325000E4001A4D15E0401C10D02869002801D068
:1032600018A100E019A11B4B0091019098333DA2D9
:103270001CA102201BF02CFE28697CBD304620F0EA
:1032800085FF2869641EE6D2124B0090A13335A257
:1032900018A102201BF01CFEEEE710B5012802D099
:1032A000074B984208D1052A06D00D2A04D00846BB
:1032B00011F0F2FF012010BD002010BD00800218A7
:1032C000018000004641494C000000005355434333
:1032D000455353006E030000776169742061757473
:1032E0006800000025733A20256420257328256492
:1032F000290A000025733A2025642074696D656FE2
:103300007574203D2025640A000000007769666915
:103310005F73746172745F6173736F635F696E74FE
:1033200065726E616C3A2025732025642025780A29
:10333000000000000200400002002000756E6B6E6D
:103340006F776E2073656375726974792074797014
:1033500065206572726F722025780A00DCD9021828
:10336000888E000077616974206173736F63000059
:10337000F0B599B005461F46164664216846209C64
:10338000FEF727FC0B97089607950EA821681BF0FF
:103390002AFA1E9809901F980A900FA8102202304E
:1033A000E168FEF755FB10200C906168002906D0FB
:1033B00013A808220230FEF74BFB18200C90A168DE
:1033C000002907D015A808220230FEF741FB0C980F
:1033D00008300C90062001460D9017A80230FEF729
:1033E000F6FB04226421684622F09CFA19B0F0BD75
:1033F000FFB599B00746164664216846239D229C76
:10340000FEF7E7FB1C98079708960B90002E0ED14D
:103410000FA802300A94022C1ED0032C1CD0002CC2
:103420002BD00D210A460C91E968FEF711FB06200E
:103430000D900120099017A806210230FEF7C7FB66
:10344000FF2206210EA8FEF79DFB04226421684698
:1034500022F068FA1DB0F0BD1022E968FEF7F8FA14
:1034600010200C9069680029E1D013A808220230CE
:10347000FEF7EEFA18200C90D9E70521D2E70000FC
:10348000FFB58BB00021149C0591806B5B4F0090C1
:10349000164639467A688968002006900790089099
:1034A0000990574823681D1820460A30002D14D073
:1034B000012D18D0032D22D0042D11D05E20C04341
:1034C0000590900506D5880704D54E4A4EA10220E6
:1034D0001BF0FEFC0098103074E00025099010E00D
:1034E000012509900DE0E17904221143E171099071
:1034F00020461A30079008300225089001E0032585
:103500000990FF20CD3080590490009800211030A0
:10351000C9430A9020F01AFE3046F8300E990C9AF2
:103520000390E030091D002A02D0012A32D048E081
:103530000022A271E27902231A43E271002D0AD01F
:10354000012D08D00E9A002A12D00691E0790007CA
:1035500008D5002007E006A8082300950190E3564F
:1035600000222AE0012006A90195029100900DE0B9
:103570000121009131780229EDD1B168069106222E
:10358000B168FEF765FA06A8019502900823E35694
:1035900000222EE0002D0AD0012D08D00E9A002A1C
:1035A0001BD00691E079000711D5002010E006A895
:1035B000082300950190E356012203990498FFF730
:1035C00017FF0A9820F09FFD05980FB0F0BD01206D
:1035D00006A901950291009008E031780229E6D110
:1035E000069006A801210195009102900823E35658
:1035F000012203990498FFF7BBFEE2E73881021825
:10360000FF53F0FF23D80410524B3931323A204592
:1036100052524F523A2025733A206E6F74207375C0
:1036200070706F72742063697068657220282578E5
:10363000290A000070B516000C4605466FD0002E12
:1036400001DA1F207FE0700001D51E207BE0B00072
:1036500001D51D2077E0F00001D51C2073E030017A
:1036600001D51B206FE0700101D51A206BE0B0017D
:1036700001D5192067E0F00101D5182063E0300280
:1036800001D517205FE0700201D516205BE0B00283
:1036900001D5152057E0F00201D5142053E0300386
:1036A00001D513204FE0700301D512204BE0B00389
:1036B00001D5112047E0F00301D5102043E030048C
:1036C00001D50F203FE0700401D50E203BE0B0048F
:1036D00001D50D2037E0F00401D50C2033E0300592
:1036E00001D50B202FE0700501D50A202BE0B00595
:1036F00001D5092027E0F00501D5082023E0300698
:1037000001D507201FE0700601D506201BE0B0069A
:1037100001D5052017E0F00602D5042013E00FE0E4
:10372000300701D503200EE0700701D502200AE022
:10373000B00701D5012006E0F00701D0002002E02B
:1037400030460EF049FFA860002C7FD001DA1F2020
:103750007FE0600001D51E207BE0A00001D51D2088
:1037600077E0E00001D51C2073E0200101D51B208B
:103770006FE0600101D51A206BE0A00101D519208E
:1037800067E0E00101D5182063E0200201D5172091
:103790005FE0600201D516205BE0A00201D5152094
:1037A00057E0E00201D5142053E0200301D5132097
:1037B0004FE0600301D512204BE0A00301D511209A
:1037C00047E0E00301D5102043E0200401D50F209D
:1037D0003FE0600401D50E203BE0A00401D50D20A0
:1037E00037E0E00401D50C2033E0200501D50B20A3
:1037F0002FE0600501D50A202BE0A00501D50920A6
:1038000027E0E00501D5082023E0200601D50720A8
:103810001FE0600601D506201BE0A00601D50520AB
:1038200017E0E00602D5042013E00FE0200701D5E1
:1038300003200EE0600701D502200AE0A00701D5B1
:10384000012006E0E00701D0002002E020460EF053
:10385000C3FE68600020286070BD0000F8B5044613
:10386000006AFF21092229311202256D0958A31887
:10387000666D002D15D08018C269002A12D0002074
:1038800000280ED11068096B00788000A430095818
:103890000096A8686D682D69A8471421204623F07A
:1038A00051F9F8BD0120EBE7FFB50D46FF35FF21CB
:1038B00081352931485985B000262946FF310390CA
:1038C0000F9C37463131304624F02CFF00280DD0B4
:1038D00076492069401803000DF024FE0D12120CE9
:1038E0001212120C1212121212120C006320C04398
:1038F00009B0F0BDC7236E4A6EA102201BF0E8FAA2
:10390000E06861686A4683C22368A26820690799F3
:1039100000F0FCF96D4904468842E9D20898002875
:1039200006D0E01DFF30FA30C17C08221143C1747B
:10393000DB20039A800000211018C943009020F07A
:1039400005FC0E9800280AD00146284624F07CFB8E
:1039500006000FD0012124F05AFF00280AD00120D0
:10396000C0022818007A02280AD003280DD00428A3
:103970001AD10AE0204617F0DFFB0124E4431FE0E0
:103980002B2040012818807805E0206900280BD002
:10399000072124F03CFF002806D0E01DFF30FA305C
:1039A000C17C40221143C174002E03D01120C001FC
:1039B0003018476732462946204600F099FA0446F7
:1039C000009820F0A0FB204692E7F0B587B00D46A6
:1039D000074613F09FF9064613F096F904461421A2
:1039E00002A8FEF7F6F802970495052D18D038487E
:1039F0000690002502A82A4601901346214600950C
:103A00003046FFF751FF002808D120460122FF3041
:103A100000211346813000F0CBF8284607B0F0BDF6
:103A20002B48001FE4E7FFB50F46FF37FF20813723
:103A30002930C459DB200025800081B0ED432018D7
:103A400016462946009020F081FBC920C000294677
:103A50002018054620F07AFBB40001260A98F643A8
:103A600000280ED00146384624F0EEFA002813D084
:103A70000499002902D02018C06B07E02018406A82
:103A800004E00321E01909024018C06C002803D0AB
:103A9000012117F011FB0026284620F034FB009886
:103AA00020F031FB304605B0F0BD0000FF53F0FFC1
:103AB000611B051025733A20256420756E7375709F
:103AC000706F7274206E6F770A00000001F0FFFFC4
:103AD00005AC0F00FEB504465E254069ED43810745
:103AE00003D54008400060615FE0A068802109586C
:103AF000E71D496AFF37FA37002942D02669002EB0
:103B000009D0F97C090702D4C16B890239D5B821E3
:103B10008959002935D0E168019183218900611814
:103B20000091002E03D009210902731800E0002340
:103B30000021019A12F0AAFB05000DD028461C3086
:103B40001FD028465F301CD0012D1AD00095002EC2
:103B500010D0FB4833180EE0606901210843606112
:103B6000F87C8421084203D10121019812F0AEF8BB
:103B70000020FEBDF34B1422BA56F3A102201BF025
:103B8000A7F9FD49F868401803000DF0CBFC0D08BB
:103B9000080E0808080E0808080808080E00012D7D
:103BA000E6D0A068C06BC003E2D50420C043FEBDD0
:103BB000FFB5C41D0546F934C926A06AF6000021E8
:103BC00081B01F468019C94320F0C0FA3B46284601
:103BD000039A029900F00BFAA06A801920F093FA78
:103BE00005B0F0BDFFB583B00C9C1D4620462843B0
:103BF00017D0002000286ED1002C07D00398FF308A
:103C000011304368446009C4083C1C60E81DE71D8E
:103C1000FF30FF37FA30FA37002D04D014268657CC
:103C200003E00120E6E71426BE5700290DD0084620
:103C30004030002A04D0B2005118CC6346735EE0D5
:103C4000B20051184C62067359E003200399000238
:103C50000818002D04D0416EA94201D1012100E0D5
:103C600000210191002D04D0C06EA84201D1012095
:103C700000E000200090002908D0002C0ED1012285
:103C80000023911E039800F0B2F901E0002C05D149
:103C900000220123511E039800F0A9F90098002882
:103CA00005D0002C03D1611E03980EF099FA0398F9
:103CB000B1000918032000020818C4640198002804
:103CC0000AD0002C11D01421795600230122039828
:103CD00000F08DF902E017E0002C06D0142179568F
:103CE00001230022039800F082F90098002806D0F2
:103CF000002C04D01421795603980EF071FA002D8F
:103D000002D003CD4160086007B0F0BDFFB581B0BF
:103D1000064602980C9F0B9C062801D3012000E068
:103D20000020002802D00420C04359E74322039812
:103D3000D200D02180181AF0B8FF050018D0E81D75
:103D4000FF300021FA30C1746961C66002990175C3
:103D5000039941758849062271180B000DF0E2FBAA
:103D60000D0B0F9D2D0B5D9D84844473735D9D0031
:103D70000520C04334E7042141740174AEE00821FA
:103D8000417404210174002C11D00026A01CFDF701
:103D90009DFF0146182070434019803041606178D2
:103DA000227809021143761C0181102EEEDB284691
:103DB0007249183020F09EF990E008214174017496
:103DC000002C10D00021062300204B435B19161A4B
:103DD0003619203E1F18F67F401C3E770628F6DB7A
:103DE000491C1129EFDB79E008214174102101748D
:103DF00000210DE0062300204B435B19161A3619EB
:103E0000203E1F18F67F401C3E770628F6DB491C33
:103E1000002C63D01129EDDB60E00021417458498A
:103E20008E4201D1122100E01A210174002C55D0DC
:103E30000020111A091920392B18C97F401C197745
:103E40000628F6DB4AE0002141741A210174002C97
:103E500044D00020111A091920392B18C97F401CA1
:103E600019770628F6DB39E0082141741021017426
:103E700000210DE0062300204B435B19161A36196A
:103E8000203E1F18F67F401C3E770628F6DB491CB3
:103E9000002C23D01129EDDB20E0002F1ED00A9941
:103EA000102901D9102200E00A46B9794174397B02
:103EB0000174002100200B015B1906E0161A361967
:103EC000203E1F18F67F3E76401C9042F6D3491CD8
:103ED0001129EFDB68690421084368612948039AC6
:103EE00028180499FDF7B4FD6D602D60284677E62B
:103EF000F0B50446C81D85B0F9300F460190816ABF
:103F0000E01DFF301646FA300391C27C08231A40A8
:103F1000142502924557E7602661A1600198816AE5
:103F2000C920C00008180021C94320F00FF9002E55
:103F30002ED00298002827D0A8008019C56B2DE04C
:103F400004090000731B05106661696C65642074C8
:103F50006F20736574206B6579202825642C2025DB
:103F6000704D2920746F20686172647761726520DA
:103F7000282564290A000000FF53F0FF122991FF51
:103F800006AC0F0016020000A8008019456A05E083
:103F9000A8000321C01909024018C56C38461AF060
:103FA0003DFC2B46009431463846029AFFF71AFE34
:103FB0000121284617F01AF80398FF30FF3002302D
:103FC000C06B002809D000250198816AC920C00073
:103FD000081820F098F8284602E62046FFF77AFDF8
:103FE0000500F1D00121204617F066F8ECE730B566
:103FF000032500242D02042903D289000918491938
:10400000CC6C032109024018002A00D04466002B22
:1040100000D0846630BD0000F8B50D4689693F27A1
:104020003F01CC1BFF261046B6000DE0002800D152
:10403000A0190146A0190FF0C2FF002809D00721DE
:10404000C9016118096FCC1B7B21621BC900CA42E0
:10405000ECD1F8BD70B50646FF3605468136F06BEB
:104060000C46002801D1606DA862284616F0F3FCCA
:10407000010002D0284616F0C1FCF06B002806D0E3
:104080005E24E443284617F0E4FB204670BD30343C
:1040900007201ECC0002281868301EC04021284688
:1040A00016F0ACFC002070BD70B5064614F086FA20
:1040B00004000AD001463046FFF7CCFF050007D0C8
:1040C00020461AF0D4FD284670BD0520C04370BDBF
:1040D00039483018016821606060046020464C60F7
:1040E00070BDF7B582B002980021FF300130856ABB
:1040F0003148C94308302818019020F027F8029869
:104100000EF04AFA0398009004980027012823D063
:10411000072109026818C46F27482E181AE02046A4
:1041200020300178002914D1007A012811D02046CE
:10413000303000990FF043FF02000AD02146284694
:10414000FFF76AFF020004D02146284615F0ECFA7A
:1041500003E02468B442E2D13C46002C05D1284655
:10416000049A0399FFF7A0FF044620460DF080F85B
:10417000002802D0260014D118E0039902981AF002
:10418000D7F82146029814F002FE06000ED0214610
:10419000284615F05FFA002803D12146284616F07C
:1041A00089F809210298C9014018876001981FF019
:1041B000AAFF304605B0F0BD7C070000F1B58AB01B
:1041C0000A989521FF300130806A03900A98C9004F
:1041D00040180890C46F00200490059009210A98A7
:1041E000090240180990C669002E24D0002000283A
:1041F0007ED130680690304615F06AFA0090039838
:10420000016B069800788000A4300D58FE490A988A
:1042100040181AF05FF80790204620300190437E46
:10422000002B0AD005A8009029463046626817F096
:1042300021F8074616E00120D9E700273846012279
:104240000DE00C216B6841435B580099994305D1FF
:104250001146059B814019437F1C0591401C29692B
:104260008142EEDC03980023016C0198DB43007E61
:1042700000220818E9684900C9194018216E401841
:10428000D02164300DF0F0FA0290002830D002996D
:1042900003988031006C4A6812184A600299896F4D
:1042A00009180298816701200090287A00280BD114
:1042B0000398C06B010701D4D4490091C00603D410
:1042C0000098202108430090207CC00603D5009868
:1042D0001021084300901821029822F0E5FD0646BF
:1042E0001821FDF774FC21680622301D203100E002
:1042F00016E1FDF7ADFB304606220A300999FDF7BD
:10430000A7FB21683046062210302031FDF7A0FBC4
:10431000608AA18A0843E18A08433AD00A210298B8
:1043200022F0C2FD2020307000207070009830769E
:10433000000A707603982146008AB076000AF0766B
:104340003046062212311C30FDF782FB0198017EB7
:104350000298891C22F0A8FD002101700199097EB4
:1043600041700199801C0A7E21461831FDF770FBCF
:104370003E46082F00DD0826B11C029822F094FD6D
:10438000012101704670801C0190002006460090BB
:104390002DE00421029822F087FD0020307070701B
:1043A00000983076000A70760398008AB076000A8A
:1043B000F076CBE701200599B040084216D0304690
:1043C0000C2250436968001D085A079A0521914044
:1043D0004A1E8018FDF7D0FC019908700198401C16
:1043E00001900098401C0090082803D0761C286992
:1043F000B042DFDC0098874225DD3F1AB91C0298E5
:1044000022F052FD322101704770871C0799052068
:1044100088400190401E009011E001200599B040B5
:1044200008420CD030460C2250436968001D095ADE
:10443000009808180199FDF79FFC38707F1C2869C7
:10444000761CB042E9DC089E8036F069C10603D5CF
:10445000010501D4012100E00021002903D0012140
:10446000C9020843F061307FC0060ED423210A98A8
:1044700049014018407F0699009101905020025D4B
:104480002B4602990A9813F0D3FE216E002912D010
:1044900020466430049A16F037FB05460498291A22
:1044A0000F46029822F000FD04993A4661186431E3
:1044B000FDF7CEFA0495E06B002810D0206C0028A0
:1044C00005D0316CB08F49010143CDB200E0002529
:1044D0000921029822F0E8FC294613F07DFF206EA6
:1044E00000280BD00499411A0D46029822F0DCFCFA
:1044F00004992A4661186431FDF7AAFA029801224C
:104500000169120411430161039A1030D26B520306
:1045100002D53F4A1143016002990A9819F044FDFF
:104520000BB0F0BDFFB587B095210898C9004018C1
:10453000069000200490079880300068006B0028E7
:10454000EED007984030008B042814D3002A12D0F4
:10455000082B10D3507901280DD106988030017FA7
:10456000090602D5818FC9B204919179446C09077B
:10457000090F8C4201D10020D2E74164002015468A
:104580000390083B0D220899083500909201019094
:10459000029005938C18A07274E0287841068A0F67
:1045A000C006C10F0020012A44D0022A4CD0032AA1
:1045B00054D00222002903D0A37A09263343A372E0
:1045C000049B1B07002B00DA01202B786F461B078A
:1045D0001B0FBB716B7801261B099E40761EBE80A7
:1045E0006B7801261B071B0F9E40761E7E80EE789F
:1045F000AF7833023B436F463B80039002910898AB
:1046000011010818072105E0080800000104000056
:1046100001001000C90140186946CAC90C30CAC05F
:104620001820069950434018FF308130406B002815
:104630001FD023E00322002903D0A37A06263343A8
:10464000A372049B5B07BDE70122002903D0A37A74
:1046500030263343A372049B9B07B3E70022002953
:1046600003D0A37AC0263343A372049BDB07ABD1EC
:10467000ABE76B460899079811F0CCFD0598001F31
:104680002D1D05900598042887D211220899012034
:10469000D2018918C86043E7F7B582B0064603988F
:1046A00000252830009081200001341801200243A9
:1046B0000098238D016C40300079002905D08107D6
:1046C0004007C90FC017401C02E000219806C00F28
:1046D0005B056769DB0F8F4201D002256161A1692B
:1046E000814202D0A06104200543E069984202D0D3
:1046F00008200543E361FF49E08C096815434843FE
:104700007D218002C900FDF72DFB052109027718E4
:10471000B8600398F861A5200399C00006223018FC
:104720002031FCF75BFB0121786C49020843786477
:10473000812000013018B96B203000290ED02921CA
:1047400049017118097F002900D1012101710098E8
:10475000C06B606401200005054302E00021616434
:10476000017101206060092000023018008C800770
:1047700005D5206D002802D0012080020543A06FDE
:10478000002802D00120000305432946304614F0DA
:104790002FFC05B0F0BDFFB504469520C0002518DC
:1047A000FF20293085B000590E9F1E460290002B35
:1047B00001D0002F7ED0002000287CD1686F002817
:1047C0007AD00020002876D1686701220299D202AF
:1047D0008918886023F050FF002E04D00122214662
:1047E000029815F089FC9520C000201831468030D1
:1047F00039430390002907D00197014600962046CF
:10480000079B069A01F06FFC002E04D0002221467F
:10481000029815F071FC0398009012F001F8204600
:1048200000210EF077F8204617F020F90121084307
:104830000746C8022018002601904661891ECA203A
:10484000415328461A21E830FDF7C3F9E81D1A2123
:10485000FB30FDF7BCF909210120C901C00761182F
:104860004860A5490298401811F086FA1120C0014D
:1048700020188168002902D0012109030F43C66076
:104880009E4839460143204614F0B2FB00212046E1
:1048900017F0E6FF9A48201811F06EFA4D2000013B
:1048A000201811F069FA284611F066FA9448283069
:1048B000201802E030E02DE030E011F05DFA4120F8
:1048C00040012018067501988E4A4665009800211F
:1048D00006610098C943C6610298801807461FF018
:1048E00035FC204619F008FD092000022018C6609A
:1048F000009806620098466238461FF004FC28467D
:10490000FF306021A130FDF764F90321082009027E
:104910006118886709B0F0BD01204DE7012051E71B
:10492000F0B50446FF30013089B0806A08909520C8
:10493000C0002518204621F009FF2646686F2C3656
:1049400000282ED001A8009001230422C021204677
:10495000FFF721FF6B4A089800218018C9430746DA
:104960001FF0F4FB09210902002061188035C8609E
:1049700028620720C0012518686D002806D0022291
:104980002146089819F023FD0020686538461FF07D
:10499000BAFB0420009001231A2201A9204601F04D
:1049A00054F930461FF0AFFBB4E7F7B58AB00F46B5
:1049B00095210A98C900451853498868C96800902C
:1049C0000C9801911E2856D3A86F002853D0416D32
:1049D000002950D10068416A006A0991089039465F
:1049E000103108A811F032FF002844D0787E397EBB
:1049F0000302F87E0B43B97E02020A43787F397FB7
:104A000006020E43A96F8889984234D1CB8993421C
:104A100031D10A9C0022FF3401340D2E0BD0002E20
:104A20002BD0324639A102201AF052FA00210A98FE
:104A300015F074F99EE03A480068012802D0394B1D
:104A40009842EED1A46A0A98E46B0023640300D56F
:104A5000354B01258D8104920592079306920B68D0
:104A60000A6E6C46643120330EC4039300232A4639
:104A7000294601F087FA0DB0F0BD022810D00BDCFA
:104A800000280DD00128F6D1042B09D039460C9A04
:104A90000A9801F0E1F8EEE7032801D08028EAD176
:104AA0006846C27021A102201AF012FAA96F0120F3
:104AB00048652049086849680A220023FCF768FC19
:104AC0001D494018A96F4860A96F01208865A86F2B
:104AD00041680A9821F0DCFBA86F818903292DD158
:104AE000C08902282AD0606A39460C9A01F09AFDE2
:104AF000C1E70000F88602181408000090200000AA
:104B0000BC0400009C0600007C1B051064656E69F7
:104B10006564206175746820282564290A000000F6
:104B20001480021801800000010010006175746893
:104B300065640A00D886021888130000DB25A06A85
:104B4000AD0000214019C9431FF000FB08A90A98D5
:104B500023F058FA002804D0022123F0BBFA0028E1
:104B600004D0A06A40191FF0CEFA84E7A06A401969
:104B70001FF0C9FA606A39460C9A01F053FDFB48F0
:104B8000066078E7FFB5B3B095213398C9004518A2
:104B9000FF3001302B90806A2C90812133980901DD
:104BA00040182D90002031903598EF6F417F007FA5
:104BB0000902014335988E04427E047E1002204390
:104BC0002F902C4600208034E060B60C0120002E8F
:104BD00002D0E7498E4201D90026E0601946359897
:104BE0001E3901AB00221E3019F090FC07980028F6
:104BF0007ED0E6800598002809D020A8007E0528F0
:104C000005D305980079000601D5012000E00020B9
:104C1000FF358135E861F86B002802D00F98002835
:104C200066D02B98816ADB20800008180021C943D8
:104C30001FF08CFA34993398203123F0E3F9050002
:104C40000BD0002000280AD02B98816ADB2080003E
:104C500008181FF058FA0024A7E00120F2E70927FE
:104C600033983F02C019C0690021002803D00022F8
:104C7000002A02D003E00122FAE7006801788800E8
:104C80002C99A430096B09581098002807D0207F70
:104C9000C00604D42B46109A339815F047FDFF2028
:104CA0002A6A293080583B468446EF18286D2E9793
:104CB000696D00288E4626D0D218D269002A03D00A
:104CC0000023002B1FD101E00123FAE7116863469E
:104CD00009781B6B8900A4315B58714630930091B1
:104CE000816840688E4600693B468446704600E015
:104CF0005FE067463099B8472846C0300121026816
:104D000009050A4302602E99002008650F980028C3
:104D100006D02C984030008B042801D3012000E0FD
:104D200000202E9988630321284623F0D3F9002818
:104D300008D1207F400709D40421284623F0CAF96E
:104D4000002803D028460DF0A4FD7DE72B98816A4A
:104D5000DB20800008181FF0D6F90020C0436064F3
:104D6000A08B40040AD40F98002807D028A8037805
:104D70000F9A33992C98FFF7D5FB03E00021339865
:104D800017F06EFD2D98012206822D992F98088527
:104D9000520334993398FFF77FFC3599339818F014
:104DA00005F8339817F0B0FF0124319819F05FFF30
:104DB000204637B0F0BDF7B584B00E469521049873
:104DC000C90040186B49C76F086900254969ED4360
:104DD00001910090002F79D0386831461031203091
:104DE00011F034FD002871D006981E286ED370781B
:104DF00031780002084316F0B4F8717E327E0B025F
:104E0000F17E13430C02B27E717F1443327F09029C
:104E100011438904890C00940191002801D056A205
:104E200000E056A256A102201AF052F830461E3079
:104E30000190A8201FF0E2F80090002846D00699C3
:104E4000034600221E39019819F060FB1E2C07D181
:104E5000009880304068002802D00178032917D0DC
:104E600000981FF0C0F83868049F0290FF370137A0
:104E7000002C2DD022464EA102201AF029F8002144
:104E8000049814F013FF01206946C8708C8043E039
:104E9000401CFCF71BFF7D25ED0080022946FCF736
:104EA00061FF04464F48066841680A2200233046E5
:104EB000FCF76EFA01190120B960F864AC4202D91E
:104EC000049821F0E5F900981FF08DF807B0F0BDC7
:104ED00001463246069B0498FFF754FE002823D073
:104EE00000206946C87040A1022019F0F1FF01219D
:104EF000049814F0DBFE002507222846D20104990D
:104F00000301591889188969002902D001218140BB
:104F10000D43401C0428F2DB0095786A3246069B5C
:104F200002990FF0C5F907E00021049814F0BEFEC5
:104F3000786A02990FF036F82E480460C6E7F8B593
:104F40000746842046580D467078317804020C4399
:104F5000384621F0FBFBF0200440A02C5DD04BDC58
:104F6000102C60D0302C63D15DE000000C80021862
:104F7000D70700007C1B051052656100410000004E
:104F8000525820257373736F6352657370202863C2
:104F9000617061623D307825782073746174757337
:104FA0003D2564206169643D2564290A00000000F4
:104FB000253032783A253032783A253032783A2521
:104FC0003032783A253032783A25303278206465AC
:104FD0006E696564206173736F6320282564290AF4
:104FE00000000000D88602186173736F63696174F2
:104FF00065640A0010800218B02C02D0C02C17D1B2
:1050000005E0314638466A6DFFF7CFFC10E03146C7
:1050100038466A6D00F058FE0AE0314638466A6D3F
:1050200000F0C1FE04E0314638466A6DFFF7C3FE6A
:1050300038462C301FF067F8F8BDF1B58AB00A98F1
:105040009521FF300130876A0A98C9004018846FA3
:105050000026002C06D00020002805D00420C043E4
:105060000BB0F0BD0120F7E7A268521CA260052A30
:1050700003DCFA48006800280ED0F9A1022019F0DC
:1050800027FF2168386B0FF03DF90920F849C0432C
:1050900008606D20C043E3E7002008900125052348
:1050A000F4A1022019F014FF0220E081A289032A52
:1050B00005D120464030858BC08B0890E581F86B88
:1050C000400300D5F14E002004900590079606900D
:1050D0002068216E20306434039002900094019186
:1050E0002946089B0A9800F04DFF0020B8E7F1B56B
:1050F00084B004989521FF30013002900498C900D3
:10510000441821F023FB25468035686B002827D002
:10511000288F002169637D27A66FFF00002E05D030
:105120000106890E102933D02C2931D0E16F0029D6
:1051300016D00106890E03D015F013FF00280FD0FA
:10514000D349086849680A220023FCF721F9C119EC
:10515000E06F8160049821F09BF8E16F0120C86442
:10516000A66F002E3DD0B06D00283AD0C8497768B0
:10517000086849680A220023FCF70AF9381A2CD576
:10518000706D002814D00021049814F0C7FD28E0A9
:10519000BF49086849680A220023FCF7F9F8C119D9
:1051A0007160049821F074F8A16F01208865D7E739
:1051B0000498FFF742FF002813D0A16F0968086A1E
:1051C000496A019100900021049814F0A7FD02980B
:1051D0006946406A0EF0E7FE03E03946049821F084
:1051E00057F8E66F002E2BD0F06C002828D0A84985
:1051F000B768086849680A220023FCF7C9F8381A1A
:105200001AD5706C002802D02869002804D00498B0
:1052100000F052FE002813D0E06F002104680498CB
:1052200014F044FD02982146406A0EF0BBFE0920AE
:105230009849C043086003E03946049821F028F8F3
:1052400004982C301EF05FFF05B0F0BDF3B58BB0B5
:105250000B989521FF300130806A09900B98C900A6
:10526000441809980027016B0C983E4600683D469B
:1052700000788000A4300858803408900D21E0693F
:1052800089028843E061C0061DD40898806900281F
:1052900019D03D210C9813F09EFE002803D04178D0
:1052A000162900D3861C2D210C9813F094FE00289B
:1052B00004D041781A2901D3871C04D1E069102158
:1052C00008430026E061A08B000525D40898006BF8
:1052D000002821D0C0210C9813F07DFE00280CD0AE
:1052E0004178052909D3851C07D0002E05D18121DD
:1052F000E069002509010843E061BF210C9813F023
:105300006AFE002802D040780C2805D20121E0690D
:10531000C90208430025E061002004A9029103901E
:105320000C980096019502683B4608990B9814F07A
:105330002DFDE16923220843E0610B98520180189A
:1053400001214177544A0998891E801806461EF0AB
:10535000FDFE002204A90B98FEF7C3FE0546684631
:10536000007D062814D0072812D00BE004A814F002
:1053700089F9E16900220843E06104A90B98FEF76E
:10538000B0FE0546002D03D06846007D0028EDD113
:1053900030461EF0B8FE28460DB0F0BDF7B5044605
:1053A000FF3098B00D4601301090816A0F910A6B62
:1053B000296895200978C0008900A4315158201827
:1053C00011912F46816F28370026002902D1C06F26
:1053D000002803D0002000283CD101E00120FAE79A
:1053E000284620301A990D90002908D00146204601
:1053F00022F008FE002800D00120002806D1D0228B
:1054000020460D9900F0E6FF060014D011991C22E9
:1054100006A81431FBF7E2FC06A9204613F0A0FB16
:105420006846119A018B0220928A01400240914203
:1054300005D0012004E00520C0431BB0F0BD0020D2
:1054400030432BD029462046FFF700FF002825D007
:10545000002E40D10420C043EFE70000A4800218D2
:10546000617574682074696D65646F75740A0000F5
:105470000C80021873656E6420617574682028744E
:1054800072792025642F2564290A0000010010008C
:10549000D8860218108002189C0600009520C000D3
:1054A000201880301390002E7ED0002012900E9095
:1054B000FE4816900020C0431490FD48201818F0B4
:1054C00009FF0090092000022018C069002807D0B9
:1054D0000021002906D031460F9822F079FDB9E766
:1054E0000121F6E714F0F4F8009B16A9059002914B
:1054F0000EA915A8009114AA0493019003923946AD
:1055000012AB1831BA6B119800F07CFC0E98002891
:1055100005D11498002802DB012181400E912868F2
:105520001299007880008219092000021018016089
:105530000120C00220180E990090016528680421FE
:105540000078002806D11598002803D01098C06A6A
:10555000084302E01098C06A884310990622C86286
:105560000D991398FBF73AFC0098A98BC18621206E
:1055700080012018E968019000291ED00123DB0278
:10558000E3180A6848681A640122D202A21850641B
:105590000098BA6882640A69052018310EF016FE78
:1055A000002808D0417800E041E0022903D3817847
:1055B0000198017323E000201FE00F98C06B4001A9
:1055C0000ED4286901220168D2024068A218116431
:1055D0000121C902611848640098F9688164EAE70A
:1055E00001220021D202A218084611640121C90239
:1055F0006118486400990020886401990873E021CB
:10560000204613F0F5FC1A98002809D031460224F0
:105610001320C03123F0A0F82146304622F05AFD75
:10562000304600F094FF002800D006E702E00D9914
:1056300011F00CF9002000E7F3B589B009980C4689
:10564000FF300130806A089095210998C9004618FA
:10565000217B5E20C0430B000BF064FF05040610A5
:1056600012147D0000270EE00B220899D201891840
:10567000096E904A91426ED2012704E0022702E0AF
:10568000802700E00327A168E0694018D02164303A
:1056900019F00BFB05005CD020682860E069042845
:1056A00013D3A0692946028840318A834088C88381
:1056B000A169E26928466430091D121FFCF7C8F988
:1056C000286EE1694018001F2866616800290CD027
:1056D000A268002A09D02B46286E6433C018FCF754
:1056E000B7F9286EA16840182866206900280CD0F8
:1056F000217D002909D0284640300174617D417424
:10570000227D30382169FCF7A3F9AF81B06F002802
:1057100003D00021099814F001FBB567706F0028D1
:105720000FD001A8009000230122C0210998FFF7A3
:1057300032F80120034600901A2201A9099800F0CE
:1057400084FA002221680998FFF728FE07000DD18E
:1057500002E00520C04383E40998FFF76EFC0700D0
:1057600013D021680998203122F0FDFB30468030AB
:1057700011F056F88021099813F03AFC0020B06728
:10578000284619F074FA38466AE408982968006BCC
:105790000EF078FD002063E4F3B58BB00B980C4657
:1057A000FF300130806A099095210B98C900471895
:1057B0002068D02128300890E068643019F075FA2C
:1057C000060030D00021206813F005FC05002DD024
:1057D00030466A78A91C1830FCF73AF930466978E7
:1057E00020300A900176786F00280FD001A8009031
:1057F00000230122C0210B98FEF7CDFF01200346B4
:1058000000901A2201A90B9800F01FFA0F21B86F1F
:10581000C943002802D0426D002A02D0FA6F002A44
:105820000AD000913CE10520C043B5E5304619F0AF
:105830001EFA0420C043AFE595220B99D2008D18C3
:105840008035002808D021682846203110F0FEFF5E
:1058500001460B9814F062FA0020A86208980069CB
:10586000002806D009984030008B042801D301207D
:1058700000E00020F063002844D0206880680246E1
:10588000006918328018009000980221831A0A4893
:105890000EF0B3FC03002ED05878991C421804284F
:1058A000F2D998790128EFD1981C07E0FFFFFF7F1C
:1058B0000808000001F0FFFFF25000005978891E2F
:1058C000082918DB4279012A15D1083008390FE080
:1058D000027813071B0F42789E4613071B0F9C4646
:1058E00012097346022B06D3944504D8001D091FE4
:1058F0000429EDD206E00020F0630121E869890364
:105900000843E8610020FE4A11E081000919C969D5
:10591000914206D0FA4B5B1C994202D0DB1C9942A3
:1059200004D18123E9691B011943E961401CA16984
:105930008142EADCE06CC00704D08121E8690901FA
:105940000843E861E06C800704D50121E869C902D9
:105950000843E8610998016B2068006800788000BE
:10596000A4300858806900280BD009984030008B7B
:10597000042806D308980069002802D0A88B4004A8
:1059800003D5E86910210843E861214638461A2208
:105990005031E830FBF722FA2146F81D1A226A310D
:1059A000FB30FCF755F86168002908D0E268002A4E
:1059B00005D030466430FCF74BF8E068306620686C
:1059C000306023220B98697D52018018002905D18F
:1059D000A968002901D0032100E001214177206856
:1059E000C08B308208981830706008980A99008F30
:1059F00048763D21206813F0EEFA002806D0417861
:105A0000162903D3C1785020815503E0E86910219D
:105A10000843E86100203064E86980218843E86138
:105A2000A168002904D0304606221230FCF710F895
:105A30000020BA21C855B349E8690D228843E861BE
:105A40004020015B0B9892018018418603210B983E
:105A50000902626C40180090426701200B99C00255
:105A600008180190027A21461031099813F04EFF70
:105A700001460098012281670020FE672875286191
:105A800021680B98FFF78AFC009000280DD028466B
:105A900010F0C6FE80210B9813F0AAFA0020F867D8
:105AA000304619F0E4F8009876E42068C768002FC3
:105AB00038D03946052018313A690EF087FB0024AA
:105AC000002805D04178042902D3C178297584784B
:105AD000012028618C48056841680A220023284675
:105AE000FBF756FCB0600120F0640998C06B4001E0
:105AF00012D501230B9806CFDB02C31819640121CC
:105B0000C902401842640898816801988164212183
:105B10000B98890140180473B1680B9820F0B8FB0A
:105B2000002039E479A1022019F0D2F920687D2102
:105B3000808BC9008002FCF715F9044672480168A1
:105B4000456808460A2200232946FBF721FC201855
:105B5000B0600120F0647064DEE7F3B589B00C46F4
:105B600095210998C9004518206900281BD00026F6
:105B7000012024F00FF9A86F02AF002815D00068AB
:105B80002168203010F062FE00280ED001970096A8
:105B9000A389C0222168099800F0A5FA002109987C
:105BA00014F0BCF816E00126E2E7686F00281BD06D
:105BB0002030216810F04AFE002815D0A28958A193
:105BC000022019F085F90097A2893346C02109986F
:105BD000FEF7E1FDA089009001231A2202A909988D
:105BE00000F033F80020B6E56A20C043B3E530B5D5
:105BF00005469520C0000C462818406F096889B0FA
:105C0000884203D04220C04309B030BDA2894CA1D4
:105C1000022019F05DF9012024F0BCF801A80090E1
:105C2000206900280FD00023A289A0212846FEF772
:105C3000B2FDA089009001231A2201A9284600F094
:105C400004F80020E0E70123EEE710B5FF30013053
:105C5000406A00F0E7FC10BDF0B50646FF300130A9
:105C6000876A052000023018046A08461146B3B05E
:105C700000251E301E3908AB2A4618F047FC119843
:105C800000281FD00420E081F86B400300D5344D7C
:105C900020464030417C2246007C103205AB049205
:105CA00023C328A9097E2068119A2030891C921EDE
:105CB0000290019103900092A289002303213046B3
:105CC00000F060F933B0F0BDF8B506469520C0008D
:105CD000301815460C461A2A64D3416F002961D04A
:105CE00020461030203110F0B1FD00285AD0607EDF
:105CF000217E07020F433A461AA102203EE000002F
:105D000001AC0F0044800000D886021877616974E6
:105D1000696E6720666F7220626561636F6E0A004C
:105D2000646561757468206279206C6F63616C20B2
:105D300028526561736F6E3A202575290A000000AC
:105D40006469736173736F63206279206C6F636140
:105D50006C2028526561736F6E3A202575290A0000
:105D600001001000646561757468202852656173D4
:105D70006F6E3A202575290A0000000019F0A8F876
:105D8000384624F007F800200346024601460090FA
:105D90003046FEF700FD00232A4621463046009794
:105DA000FFF753FFF8BDF8B506469520C000301840
:105DB00015460C461A2A24D3416F002921D02046CB
:105DC0001030203110F042FD00281AD0607E217E74
:105DD00007020F433A4659A1022019F079F83846D4
:105DE00023F0D8FF002003460246014600903046CB
:105DF000FEF7D1FC00232A46214630460097FFF7E4
:105E000024FFF8BDFFB583B0002550E00498415D44
:105E10004E06760EC80902901099304688408100DF
:105E200040186E2802DD0D99012008600498405D3D
:105E3000010602D5C043400638D01098052700243B
:105E40008740781E01900398006900902CE0039829
:105E500041680C206043081802681199914321D1D0
:105E60008188019808183946FBF786FFB04219D19E
:105E70000698069A01680120A0400143116002992A
:105E8000002904D00C99096801430C9801600E990F
:105E9000B00009683018884208DA0E9908600F9837
:105EA000046003E00098641CA042D0DC6D1C0598DF
:105EB0008542ABD307B0F0BDF8B50546052000021A
:105EC0002818446AFF20E2682930521C4659E260D3
:105ED000052A03DC1F480068002812D01EA10220FA
:105EE00018F0F6FF2168306B0EF00CFA00212846FE
:105EF00013F0DCFE09201C49C04308606D20C0433C
:105F0000F8BD052319A1022018F0E2FF2846FEF78C
:105F100055F9F06B1A4940037D26F6000868012701
:105F200049680A220023FBF733FA8119E7642846FF
:105F3000A16020F0ADF90020F8BD00006469736134
:105F400073736F632028526561736F6E3A202575F5
:105F5000290A0000A48002186173736F63207469BA
:105F60006D65646F75740A00108002186173736F39
:105F70006320287472792025642F2564290A000083
:105F8000D8860218FFB583B003981746FF3001305A
:105F9000866A0D98316C263008180FF09CFF0500BA
:105FA0007ED029468031306C4A68001D12184A6044
:105FB000A96F0818A8671E21284620F075FF04461F
:105FC0001E21FBF704FEB020207000206070062226
:105FD000201D0E99FBF73CFD092103980902411889
:105FE000204606220A30FBF733FD204606221030F9
:105FF0000F99FBF72DFD2776380A60760498A07676
:10600000000AE07606982077000A60770C9800284E
:1060100007D028460D9920F047FF0D9A0C99FBF701
:1060200017FD012F53D10498032850D160782178AF
:1060300000020843B90308432070000A60701198F9
:106040000C3019F059FD00210446C1711198052842
:1060500031D050482060129820721198607204204C
:106060006071207120460A30119A1099FBF7F0FCFC
:106070000E99039821F0C6FF002102910399002890
:1060800002D00922120280180190084610F0F8FD93
:106090008021009489594F6A3F494218304600E0F8
:1060A00007E0019B0299B847002807D0204610F06E
:1060B00047FD07B0F0BD3748001FCBE72946304603
:1060C000129B119A18F08FF9204610F039FD012328
:1060D00013992A691B0419430A432A612946039824
:1060E00017F078FFE5E7FFB581B00646FF212931BB
:1060F0000B9C8F592270110A61700021A170E17010
:10610000A175E1751D460622201D0299FBF7A0FC32
:10611000092000023118204606220A30FBF798FCBD
:106120002046062210300299FBF792FC2576290AB8
:1061300061760A9800282BD0386C1A300FF0CBFE0D
:10614000050025D029468031386C4A6812184A600B
:10615000A96F0818A8671A21284620F0A5FE1A2260
:106160002146FBF775FC0120C0023018007A022896
:1061700005D1052000023018406C400604D40122ED
:1061800029691204114329612946304617F022FF7C
:1061900005B0F0BD05AC0F0008080000FFB589B0E0
:1061A0000546002004900920129F02900C98386048
:1061B0000C980E460024009009E0317A224600989F
:1061C0001DF0F7F9002801D060B204E0641C3069CA
:1061D000A042F2DC002038610C22716850430C1898
:1061E0000B9813F06AFA0121009101902078A2889F
:1061F000C006C30F307A0A2114F03AF8B860286854
:10620000183013F086FA089000207861387692E012
:106210000498796B482250430C18183008180790DE
:10622000002005900690A8680390317A009A0C9897
:106230001DF0BFF900287CD000980C2271685043F3
:10624000019009580898884373D104984821401C4C
:1062500004902046FBF7BDFC30210798FBF7B9FC02
:10626000009820710B9813F028FA01997268091DA3
:10627000525A05218140481E1018FBF77DFD206011
:10628000716801980B9B0A18307A21460DF058FE70
:106290000020C04320610798012120308170617186
:1062A000C170A168BA6889188C46E268A168531861
:1062B000039A029951434908C9185200EB68521CCD
:1062C0009A4200D31A460392624652189446069B9D
:1062D000BA685B18D31852005218059906935118E2
:1062E00005916A699A4205D961792A69914201D278
:1062F000491C61716A6905998A4205D9C1782A6980
:10630000914201D2491CC1706A69624508D922468E
:106310002032917E491CC9B291762A699142C4D338
:106320008178A17172680199515CC90601D48078A5
:1063300060710098401C00903169814200D967E784
:106340000022D243049805E048217B6B4143591851
:106350000A71401C31698142F6D8049838630948B3
:10636000046841680A2200232046FBF711F8786090
:10637000384618F0C1FA394628461AF0C3FE0DB067
:10638000F0BD0000D8860218F8B507468030806F4F
:106390008668017BE43E022903D0082901D001214F
:1063A00000E00021002914D10025B8210D50A030B3
:1063B0008570B068006A00280BD00024E436E2B291
:1063C0000023394630460095FDF72DFB641C062C52
:1063D000F5DBF8BDF7B50546FF300130866A8B481E
:1063E000F16C82B00818049918F05FFC040054D0D6
:1063F000874F2046394658301DF07CFE20463946EE
:10640000C4301DF077FE8349AC2001510F21C90132
:1064100081486118C8673B204001394620181DF0AB
:1064200069FE7A480622943820180399FBF710FB7E
:106430007A48E6612562056841680A2200232846F9
:10644000FAF7A6FF0127BF02E51928630120BC2146
:10645000085547214901FF2061180877684618F060
